:020000040000FA
:10000000020E8F020D6420070B0510E510F4700F2F
:10001000D207800B1510E51070057F0102156212E2
:10002000147A22020843E4F5A9E5A9548060FA7520
:10003000A903E5A9548060FA22222202053B0203AB
:1000400097E86480F8E933E83360110460F0ED3339
:10005000EC337009E8FCE9FDEAFEEBFF220460DE08
:10006000D3EB9FEA9EE99DE8C2E78CF0C2F795F0DA
:10007000400CE8CCF8E9CDF9EACEFAEBCFFB12035D
:100080006285D0F05804700320D5B3E8047007509F
:1000900002B2D50203A192D5EC0460F7E4CCC0E033
:1000A000C398F8603B94186008400DD0E0FB020351
:1000B00079E4FBFAC9FC8028E830E406E4C9FBE4F3
:1000C000CAFCE830E305E4C9CACBFCE85407601079
:1000D000F8C3E913F9EA13FAEB13FBEC13FCD8F1BC
:1000E00030F52FC3E49CFCEF9BFFEE9AFEED99FDEB
:1000F000D0E0FBEF4E4D4C701222DB0302039EEC6E
:100100002CFCEF33FFEE33FEED33FDED30E7EB0279
:100110000379EF2BFFEE3AFEED39FDD0E0FB5013F3
:100120000BBB00030203A1ED13FDEE13FEEF13FF63
:10013000EC13FC020379EC4D6011E8497017ED33C4
:10014000EC3304600DE4FCFFFEFD22E933E83304E8
:1001500070F802039712036258046009E4CC24810A
:1001600050062850090203A128400302039EC0E064
:10017000EB4A7044B98006D0E0FB02038DEF4E706D
:100180001CBD8008EBFFEAFEE9FD80EBE98DF0A4E1
:10019000FEE5F002021FE9CDF9EAFEEBFFEF89F080
:1001A000A4FCE5F0CE89F0A42EFFE435F0CD89F073
:1001B000A42DFEE435F08067EF4E7005BD80D7803A
:1001C000C3EF8BF0A4ACF0EE8BF0A42CFCE435F084
:1001D000F8EF8AF0A42CE5F038FCE433CB8DF0A4E2
:1001E0002CFCE5F03BF8EE8AF0A42CFCE5F038F8A6
:1001F000E433CF89F0A42CFCE5F038CF3400CE896D
:10020000F0A42FFFE5F03EFEE433C98DF0A42EFEEE
:10021000E5F039CD8AF0A42FFFE5F03EFEE43DFD88
:1002200033D0E0FB50070BBB000F0203A1EC2CFC0A
:10023000EF33FFEE33FEED33FD0203790203A1EC51
:100240005D046005E85904700302039712036258C5
:100250000460F6EC4860F2EC7004FDFEFF22C8601A
:10026000DB2481C85009C3986002500602039E989F
:1002700050CAF582E9294B4A7005AB8202038D759D
:10028000F0007C1A7880C3EF9BEE9AED99400DC385
:10029000EF9BFFEE9AFEED99FDE842F0DC23ACF017
:1002A000D0E0FFD0E0FED0E0FDAB8220E7101BEBFA
:1002B00060BAEC2CFCEF33FFEE33FEED33FD0203AE
:1002C00079E803F830E705C0F075F000EF2FFFEE96
:1002D00033FEED33FD40B830E7C280AAED33EC3396
:1002E000600A047003BD8004ECB2E7FC2275F020C4
:1002F000800E75F010800575F0087D007E007F008F
:100300003392D530D5031204DEEC334010EF33FFC7
:10031000EE33FEED33FDEC33FCD5F0ED22E5F024B9
:100320007EA2D513CC92E7CDCEFF22EDD2E7CD331E
:10033000EC3392D524814006E4FFFEFDFC22FCE470
:10034000CFCECDCC24E0501174FF80EDC3CC13CCC4
:10035000CD13CDCE13CECF13CF0470F030D5DE0247
:1003600004DEE9D2E7C933E833F892D5EDD2E7CD20
:1003700033EC33FC5002B2D522EC30E7100FBF0053
:100380000C0EBE00080DBD00040BEB6014A2D5EBF3
:1003900013FCED92E7FD2274FFFCFDFEFF22E480DA
:1003A000F8A2D574FF13FC7D80E480EFC0E0EFFB82
:1003B000EEFAEDF9ECF8120136D0E0F5F0EFFBEED5
:1003C000FAEDF9ECF81204FDA3A3A3A3E8C0E0E959
:1003D000C0E0EAC0E0EBC0E0C0F012013612050D4B
:1003E000A3A3A3A3120045D0F0D0E0FBD0E0FAD045
:1003F000E0F9D0E0F8D5F0D422BB010689828A83E7
:10040000E0225002E722BBFE02E32289828A83E4D3
:100410009322BB010CE58229F582E5833AF583E05E
:10042000225006E92582F8E622BBFE06E92582F87D
:10043000E222E58229F582E5833AF583E49322BB43
:10044000010689828A83F0225002F722BBFE01F363
:1004500022F8BB010DE58229F582E5833AF583E8B0
:10046000F0225006E92582C8F622BBFE05E9258266
:10047000C8F222BC000BBE0029EF8DF084FFADF066
:1004800022E4CCF875F008EF2FFFEE33FEEC33FCDE
:10049000EE9DEC984005FCEE9DFE0FD5F0E9E4CE14
:1004A000FD22EDF8F5F0EE8420D21CFEADF075F0E3
:1004B00008EF2FFFED33FD4007985006D5F0F222EC
:1004C000C398FD0FD5F0EA22A3F8E0C5F025F0F0BF
:1004D000E582158270021583E0C838F0E822C3E493
:1004E0009FFFE49EFEE49DFDE49CFC22EB9FF5F063
:1004F000EA9E42F0E99D42F0E89C45F022E493FC3C
:10050000740193FD740293FE740393FF22E493F845
:10051000740193F9740293FA740393FB22ECF0A331
:10052000EDF0A3EEF0A3EFF022A42582F582E5F032
:100530003583F583228A838982E473C0E0C0F0C0EA
:1005400083C082C0D075D000C000C001C002C0030B
:10055000C004C005C006C00775A700E5C054F07010
:100560000302066D24F0700302069B24F070030260
:10057000062B24E0700302060F24F0700302069B92
:1005800024D0606624C0602224E060030206B39099
:1005900000CCE09000CA700AE04401F5C2D2040227
:1005A0000667E0F5C2C20402066730C136300410A7
:1005B0009000CBE014F060030206B8C2C10206B896
:1005C0009000CCE060129000C4121504E0F5C290D7
:1005D00000CCE014F00206B89000CBE06029D2C550
:1005E0000206B87F011216E980209000C21215049D
:1005F000E5C2F09000CBE0600C14F060030206B896
:10060000C2C10206B8C2C11216E6D2C40206A920AF
:10061000C1030206B89000CEE014F0600912150183
:10062000E0F5C20206B87F030206B530C21390009F
:10063000CFE0FF14F0EF6004D2068005E4FF12164D
:10064000E9E5C213B392042004032005059000CD10
:10065000E4F02004129000CDE070032005031200A6
:1006600039121501E0F5C2C2C5D205804B9000CD0C
:10067000E0FF04F09000C6E0FCA3E02FF582E43C2C
:10068000F583E5C2F09000D0E0FF9000CDE06F7000
:10069000271200399000CDE4F0801D30040990004D
:1006A000CDE06003120039C2C4A20692C5C206C2E0
:1006B0000580057F021216E9C2C0D007D006D0051A
:1006C000D004D003D002D001D000D0D0D082D083CB
:1006D000D0F0D0E0323A70FA83BCAAE9E43E81E07F
:1006E000F8BF9DE9E63F80000039283C1ABB9969B4
:1006F000663DA335E3BF255DE73FC90FDB418DDBD9
:10070000CCC44936EE45C9913FC5B0F83D3F8000A5
:1007100000C317F534452FFA73C60AFDDD1207C46E
:1007200004A2E192021420E0159006D5740412038D
:10073000AC80261207C430E102B20220E0EB8C4B01
:100740008D4C8E4D8F4E9006E974041203ACA84B6D
:10075000A94CAA4DAB4E120136ED4C600730020495
:10076000EC6480FC221207C4C0E08C4B8D4C8E4D93
:100770008F4E90070D74031203ACA84BA94CAA4DE1
:10078000AB4E120136ECC54BFCEDC54CFDEEC54D34
:10079000FEEFC54EFF9006FD74031203ACD082A895
:1007A0004BA94CAA4DAB4EE58230E00712023FB296
:1007B0000280A6EFCBFFEECAFEEDC9FDECC8FC122D
:1007C000023F8095ED33EC547FCC3392022460508D
:1007D00007D0E0D0E00203977B837AF97922783E54
:1007E000120136EDF933ECF83324815011EFFBEEB2
:1007F000FA12032B1202EDECB2E7FC120045ED33C6
:10080000EC33602F2403F8C313FCED92E7FDE824DA
:1008100081E4501FECF8EDF9EEFAEFFB12032BEF39
:1008200004C2E0FCF5821202F7ECB2E7FC120045CC
:10083000E58203FAED33EC3360071413FCED92E725
:10084000FDEA22C0E0C0F0C083C082C0D075D000F5
:10085000C000C001C002C003C004C005C006C0077C
:1008600085A73575A700E59830E1705398FDE50C34
:100870007009750C0175997E020979E509C3950F18
:10088000504974B52509F582E43400F583E0FFE5AD
:10089000096031E50F146509602AEFFD647E600A86
:1008A000ED647F6005ED647D701AE50B7009750BD2
:1008B0000175997D020979750B00EF6420F59905A2
:1008C000090209798F990509020979E50D6003028A
:1008D0000979750D0175997F020979859933750F2D
:1008E00000E508640D7005F508750A01AF337E0058
:1008F000EF647E7005F508020979E508F4607AEF87
:10090000647F4E706885080E7508FFE50A600A7FEF
:1009100004121689750A008060C3E50E9403748082
:10092000948050047F0180261214479000A8E0F5BF
:10093000347B017A0079A8AD0E121199EF60047F23
:1009400002800BAF34EF600B640260077F03121666
:10095000898026E5346402700512167E801B12160B
:1009600094501653A8EF7F02121562800C74A825CC
:10097000081215CCE533F005088535A7D007D00659
:10098000D005D004D003D002D001D000D0D0D08286
:10099000D083D0F0D0E032BE1249253E4CCCCDBE43
:1009A000AAAAAB3F8000003E7ADBB03EED63383F41
:1009B00024BC7D3F490FDBED33ECC2E7CC33920220
:1009C000B4FF13ED547F60030203977FDB7E0F7D3E
:1009D000C97C3F020AB2C203C3947F401E7007ED78
:1009E000D2E794904015EFFBEEFAEDF9ECF87F00BA
:1009F0007E007D807C3F12023FD203ED33EC332436
:100A00008430E705E4C0E0806D04FAEDD2E754F0ED
:100A1000C333DAFD540734002323C0E0CCC0E0F830
:100A2000EDC0E0F9EEC0E0FAEFC0E0FBE41202F73F
:100A3000EC24FEFC8C4B8D4C8E4D8F4E1201367B80
:100A4000007A007980783F120045ECC54BB2E7FC94
:100A5000EDC54CFDEEC54DFEEFC54EFFD0E0FBD021
:100A6000E0FAD0E0F9D0E0F8120045A84BA94CAA72
:100A70004DAB4E12023F8C4B8D4C8E4D8F4E9009DC
:100A80009774031203ACA84BA94CAA4DAB4E1201AC
:100A900036D0E0600F24A3F582E43409F583120513
:100AA0000D12004530030B7BDB7A0F79C978BF123A
:100AB0000045ED33EC336006ECA20292E7FC229095
:100AC0000062E0F5427FDB7E0F7D497C409000654F
:100AD000E0F8A3E0F9A3E0FAA3E0FB120136E4FB9F
:100AE000FA7934784312023F8F468E458D448C4309
:100AF0007E01900063E0FFEEC39F5010AF06A3E0BD
:100B0000FD1215B0EF2542F5420E80E6E54224F5D0
:100B1000FDE434FFFC1202F27BCF7A04798D783C3D
:100B200012013612071D7B3C7A7679D178BE12010C
:100B3000368F4A8E498D488C47AF46AE45AD44ACA2
:100B4000431207651202DCC004C005C006C007AF2F
:100B50004AAE49AD48AC47120765D003D002D00178
:100B6000D000120136121311794078C11214327B71
:100B7000DB7A0F7949784012023FE4FBFA7940783A
:100B80004112004590004802051D02039722EDA284
:100B9000E7D2E7F9EC3340F260F3B4FF08ED547F9D
:100BA00070E80203A1F82481C2E0C0E0F40428FA4E
:100BB000C313FCED92E7FD8C4B8D4C8E4D8F4EEEAA
:100BC000A2E7E9BA7F02C31334009400FA75F091EA
:100BD000A4E5F013F494FE8AF0A433E5F033248CFA
:100BE000D313FDE492E7FE7F007C3F758302ECC0E7
:100BF000E0F8EDC0E0F9EEC0E0FAEFC0E0FBAC4B8E
:100C0000AD4CAE4DAF4E12023FD0E0FBD0E0FAD07B
:100C1000E0F9D0E0F8120045ED6480FD30E7011CFA
:100C2000D583CBED33CC33F8D0E0A2E71328C31340
:100C3000CC13FD22D20075270075280075292312D8
:100C400016C812127DE523700790007A7403802D78
:100C500090007AE0FFC3940674809480400474048A
:100C6000801BEF75F006A42485F582E43400F5833B
:100C7000E0FEE523146E600B90007A7405F0752396
:100C8000018036EF75F006A42489F582E43400F57E
:100C900083E024FF92001216C8C002EF75F006A48C
:100CA0002486F582E43400F583A3E0FAA3E0F5821C
:100CB0008A83D0021205398F233000057F03121575
:100CC000621216C8AD2312123243A810226024000B
:100CD000840000FF16C1010101FF1544000200FF5E
:100CE00016C1010300FF135B010406FF1147010554
:100CF00000FF0F9F010108FF010E00010A0001091A
:100D000000010F00010C00010B00010D000110009B
:100D1000C107C10844006541F22222603C00010085
:100D20000001FF16EC010102FF16EC010001FF00BB
:100D300006020203FF16E0030203FF16E0030302AC
:100D4000FF16EC020404FF16E3040404FF16E30498
:100D50000502FF16EC020602FF003A4100000041C6
:100D600000470000C0E0C0F0C083C082C0D075D092
:100D700000C000C001C002C003C004C005C006C05E
:100D8000077F0612156290005FE004F0643C704F2C
:100D9000F0A3E004F0643C7046F0A3E004F06418B3
:100DA000703DF0900063E0FFA3E0FD1215B09000ED
:100DB00062E004F06F7028120ABF9000627401F0C4
:100DC000A3E004F0640D701704F0A3E004F0646481
:100DD000700D90005E04F0E024FF92021216CFD056
:100DE00007D006D005D004D003D002D001D000D067
:100DF000D0D082D083D0F0D0E032E490005EF0E03A
:100E000024FF92021216CF120ABFE4FFEFC394121E
:100E100074809480500F744C2FF582E43400F58375
:100E2000E4F00F80E7E490004CF090005FE0FF12E8
:100E3000161C90004DEFF0900060E0FF12161C9021
:100E4000004EEFF0900061E0FF12161C90004FEF93
:100E5000F0900062E0FF12161C900051EFF090003D
:100E600063E0FF12161C900052EFF0900064E0FF68
:100E700012161C900053EFF0C2087C007D4C752BBD
:100E800012E4F52CFBFA7FD01213D83008FD22783B
:100E90007FE4F6D8FD75814E020ED6021526E49346
:100EA000A3F8E493A34003F68001F208DFF480295D
:100EB000E493A3F85407240CC8C333C4540F44204C
:100EC000C8834004F456800146F6DFE4800B01023B
:100ED000040810204080900CCDE47E019360BCA3F8
:100EE000FF543F30E509541FFEE493A360010ECF89
:100EF00054C025E060A840B8E493A3FAE493A3F8B3
:100F0000E493A3C8C582C8CAC583CAF0A3C8C58272
:100F1000C8CAC583CADFE9DEE780BEC208E4900024
:100F20004CF07C007D4C7A007B69752B01752C118F
:100F30007FD01213D83008FD900069E0FF121662CE
:100F400090005FEFF090006AE0FF12166290006080
:100F5000EFF090006BE0FF121662900061EFF090EE
:100F6000006DE0FF121662900062EFF090006EE0FC
:100F7000FF121662900063EFF090006FE0FF121610
:100F800062900064EFF0900078E0FFC413131354F4
:100F90000190005EF024FF92021216CF020ABF8B6E
:100FA000238A248925E412043F12143812032B905B
:100FB000000112141090000112141A1214381214A5
:100FC0002B8F298E288D278C2612032B900002123E
:100FD000141090000212141AAF29AE28AD27AC26C7
:100FE00012142B12032BAB23AA24A925900003EF84
:100FF0001204517F0422900047E0D394007480943F
:1010000080404690003DE0FFE4FDFC900047E02476
:10101000FFFBE434FFFAC3ED9BEA6480F8EC6480E4
:1010200098501F743E2DF58274003CF583E0FE74E9
:101030003D2DF58274003CF583EEF00DBD00010CF2
:1010400080C9900047E014F0227F07228F24E4F546
:1010500025F52690000112162FE0FF900000E0FE1B
:10106000EF6E702990000212162FE0FF65246003D6
:10107000EF701A90000312162FE0900000F090001D
:101080000412162FA3E0FAA3E0F90205350526E5C0
:101090002670020525C3940AE5256480948040B338
:1010A000228F278E268D258C24E4F52BF52AF52911
:1010B000F52885A72D75A71085A42CAF27AE26ADE2
:1010C00025AC24AB2BAA2AA929A828C31204EC60BA
:1010D00020E52C65A460FA85A42CE52B2401F52BD2
:1010E000E4352AF52AE43529F529E43528F5288060
:1010F000CA852DA7228B3C8A3D893E8D3F74FFF522
:1011000040F541E4FDEDC3953F5037AB3CAA3DA906
:101110003E8D82758300120412FEEE6240E4FCEC08
:10112000C39408748094805016E54030E70B121584
:10113000D463412163401080031215D40C80E00D6C
:1011400080C3AE40AF41228B238A248925900001C1
:1011500012041290005FF0900002120412900060DE
:10116000F0900003120412900061F0900004120449
:1011700012900062F0900005120412900063F0904B
:101180000006120412900064F0120DFAAB23AA2498
:10119000A925E412043F7F01228B368A3789388DD6
:1011A00039E53924FEFD1210F58E3A8F3BE539FD05
:1011B0007C0024FEF582EC34FFF583AB36AA37A918
:1011C00038120412FE74FF2DF582EC34FFF5831201
:1011D00004122400FFEC3EFEE53B6F7003E53A6E1F
:1011E0007F0060027F0122E4F5A77597A5F528F539
:1011F00027F526F525E47F19FEFDFCAB28AA27A9D3
:1012000026A825C31204EC501800E5282401F5286F
:10121000E43527F527E43526F526E43525F5258040
:10122000D4A2AF9200C2AF7597DE7597ADA20092BF
:10123000AF228B248A2589268D27D3E527940A742B
:1012400080948040057F05021689E49000B5F0FF88
:10125000EFC39527501EAB24AA25A9268F8275833C
:1012600000120412FE74B62FF582E43400F583EE0A
:10127000F00F80DCE52704F50F1214A9228B248AD5
:10128000258926E50E24FDAB27AA28A92912043FAB
:10129000E4FFFEAB27AA28A9291203F9FDC3EF9D9D
:1012A0007480F86E98501F74A92FF58274003EF573
:1012B00083E0AB24AA25A9268F828E831204510FC6
:1012C000BF00010E80CD2253E3BF43D40143D402BB
:1012D00043F10143F10253E1FB43E340208122C289
:1012E00080E4FFEFC394FF7480948050030F80F379
:1012F000D280E4FFEFC394FF7480948050DE0F80AF
:10130000F353E3BF53D4FE53D4FD43E10443E3401E
:1013100022ECC0E0F8EDC0E0F9EEC0E0FAEFC0E08A
:10132000FB120136EC6480FC7B007A007980783F08
:10133000120045120B8ED0E0FBD0E0FAD0E0F9D0DD
:10134000E0F8C0E012023F1209B7D0E030E70B78B6
:101350004079497A0F7BD912004522E412043F906C
:10136000005FE0900001120451900060E0900002E4
:10137000120451900061E090000312045190006249
:10138000E0900004120451900063E0900005120404
:1013900051900064E09000061204517F072285A757
:1013A000241211E712169F1216521216D41216A901
:1013B0001200261216B31215971215F612160912FC
:1013C00015E01216711214D71216421216D8121600
:1013D000DC1216BA8524A722AEA7E4F5A79000CAAE
:1013E000EFF09000C4ECF0A3EDF09000C2EAF0A39F
:1013F000EBF09000CCE52BF09000CBE52CF09000CA
:10140000CF7401F0300504D2068002D2C58EA72227
:10141000AB23AA24A925EF020451120412FCE41202
:1014200002F7A804A905AA06AB07221200417970A9
:101430007842E4FBFA020136900048E0FCA3E0FDAC
:10144000A3E0FEA3E0FF22E4FFFEEEC3950E5027CB
:101450001215C9E0FD647D70120E1215C9E06420FA
:10146000FC74A82F1215CCECF0800874A82F12156C
:10147000CCEDF00F0E80D38F0E2275F002E510A494
:1014800024EDF582E5F03416F583E493FE740193C0
:10149000FF7C007D0A120473AB07AA06EB2496FDBD
:1014A000E43AFCAF05FE02157D7B017A0079B5AD0B
:1014B0000F1210F5AC0674B5250FF582E43400F573
:1014C00083ECF074B6250FF582E43400F583EFF079
:1014D000050F050F02167E75A71053C9FE75C201D0
:1014E00075C5FF75C6FF53C29FE4F5AB75AC05F536
:1014F000B275B30343C26043D10143D10243C90172
:10150000229000C8E475F0011204C885F082F583CA
:1015100022AEA7E4F5A753C1BF8FD722A6A7E4F553
:10152000A7A8110808221212C712139E120F1B122D
:101530000FF68F2312104C7F027E007D007C00127C
:1015400010A180EB8B238A248925900001120412BC
:10155000F51012147AAB23AA24A925E412043F7FC4
:1015600001221216945015900047E0243DF582E4C4
:101570003400F583EFF0900047E004F022A9A7754E
:10158000A71053C29FEFF5ABEEF5ACEDF5B2ECF55D
:10159000B343C26089A722E4F5A7AF885388AF752B
:1015A0008C86758D2BEF5440FEEF54104E428822EE
:1015B000EF6402700DED54037008EF9018EC930483
:1015C000FF22EF9018EC93FF2274A82EF582E434EA
:1015D00000F58322E54125E0F541E54033F5402261
:1015E00075A710E59854045398FB5398FC43980250
:1015F000439804429822E5C8540453C8FB75CBFEB7
:1016000075CA1643C80442C822E59154045391FB9D
:101610007593F075920D439104429122EF75F00A93
:1016200084C454F0FEEF75F00A84EE25F0FF2275B5
:10163000F006E526120529E52575F006A42583F5B3
:10164000832275A72075C308E4F5A775AC8043C154
:10165000C32275A03F75A64075A72075F34075CCD1
:101660004022EFC4540F75F00AA4FEEF540F2EFF72
:1016700022E4F5A7758E1975892243885122E4F575
:1016800009F50CF50D439902229000B5EFF0750FA6
:10169000010214A9900047E0640AC36001D32275D7
:1016A000A41C75F17F75D44022E4F5A775E350754D
:1016B000E1052275A71075C1102275E60175A89184
:1016C00022E412043F7F01227B017A00797A22A270
:1016D0000292A62275F408224398302275E406226D
:1016E000020C34020C34D208228F22222200010084
:1016F0001C003900550071008E00AA00C600E300EE
:10170000FF011B013801540170018D01A901C501C0
:10171000E201FE021A023702530271028F02AE0288
:10172000CE02EF031103350359037E03A503CC0357
:10173000F4041E0449047504A204D004FF05300516
:1017400062059505C905FF0636066E06A706E2077F
:101750001E075B079A07DA081C085F08A308E90957
:1017600031097909C40A0F0A5D0AAB0AFC0B4E0B5A
:10177000A10BF60C4D0CA50CFF0D5B0DB80E170E52
:10178000780EDA0F3E0FA4100C107510E0114D11F9
:10179000BC122C129F131313891401147B14F71518
:1017A0007515F5167716FA178018081892191D196D
:1017B000AB1A3B1ACD1B611BF81C901D2A1DC71EBE
:1017C000661F071FAA205020F721A1224E22FC23CA
:1017D000AD2460251525CD26872744280328C42954
:1017E000882A4E2B172BE22CAF2D7F2E522F272F1E
:1017F000FE30D931B532953377345B3542362C37EC
:1018000018380738F939EE3AE53BDF3CDC3DDB3E82
:10181000DD3FE240EA41F5430244134526463C479A
:1018200055487149904AB14BD64CFE4E294F5650FF
:101830008751BB52F1542B556856A857EB59325A71
:101840007B5BC85D175E6A5FC0611A627663D665AE
:1018500039669F680969766AE66C596DD06F4B707E
:10186000C8724973CE755676E178707A027B987D9E
:10187000317ECD806E821183B98564871288C48AD7
:101880007A8C338DF08FB19175933D950996D998E7
:10189000AC9A839C5E9E3CA01EA205A3EEA5DCA78D
:1018A000CEA9C3ABBDADBAAFBBB1C1B3CAB5D7B793
:1018B000E8B9FDBC16BE33C054C279C4A3C6D0C9B2
:1018C00001CB37CD71CFAED1F0D437D681D8CFDBB5
:1018D00022DD79DFD4E234E498E700E96CEBDDEE59
:1018E00052F0CBF349F5CBF852FADDFFFF1F1C1F76
:0918F0001E1F1E1F1F1E1F1E1FDC
:00000001FF
