:020000040000FA
:1000000002025CE5B0540164016014E51A700875E1
:100010001A01751BFF8005E4F51AF51B120647222D
:0100200022BD
:0700230002002E75A8B022B7
:10002B000206CEC0E0C083C082C0D075D000C00035
:10003B00C001C002C003C004C005C006C00785A72D
:10004B004375A700E59830E1705398FDE5167009EC
:10005B0075160175997E02015AE513C3951950491E
:10006B0074082513F582E43400F583E0FFE5136093
:10007B0031E519146513602AEFFD647E600AED64A7
:10008B007F6005ED647D701AE515700975150175B6
:10009B00997D02015A751500EF6420F5990513023D
:1000AB00015A8F99051302015AE517600302015A91
:1000BB0075170175997F02015A859941751900E5EC
:1000CB001264087005F512751401AF417E00EF64E0
:1000DB007E7004F5128078E512F46073EF647F4E46
:1000EB0070618512187512FFE514600A7F04120700
:1000FB00C57514008059C3E518940374809480501F
:10010B00047F018026120614900000E0F5427B016B
:10011B007A007900AD181204B2EF60047F02800BF5
:10012B00AF42EF600B640260077F031207C5801FAD
:10013B00E542640270051207BA801453A8EF75519B
:10014B0002800C7400251212072BE541F005128575
:10015B0043A7D007D006D005D004D003D002D001DE
:10016B00D000D0D0D082D083D0E032BB01068982C0
:10017B008A83E0225002E722BBFE02E32289828AB5
:10018B0083E49322BB010CE58229F582E5833AF5E2
:10019B0083E0225006E92582F8E622BBFE06E9251C
:1001AB0082F8E222E58229F582E5833AF583E4932E
:1001BB0022BB010689828A83F0225002F722BBFE02
:1001CB0001F322F8BB010DE58229F582E5833AF5AF
:1001DB0083E8F0225006E92582C8F622BBFE05E92A
:1001EB002582C8F222BC000BBE0029EF8DF084FFE4
:1001FB00ADF022E4CCF875F008EF2FFFEE33FEECF8
:10020B0033FCEE9DEC984005FCEE9DFE0FD5F0E91E
:10021B00E4CEFD22EDF8F5F0EE8420D21CFEADF01D
:10022B0075F008EF2FFFED33FD4007985006D5F022
:10023B00F222C398FD0FD5F0EA22EB9FF5F0EA9E70
:10024B0042F0E99D42F0E89C45F0228A838982E4E2
:10025B0073787FE4F6D8FD7581750202A30206F36D
:10026B00E493A3F8E493A34003F68001F208DFF4D0
:10027B008029E493A3F85407240CC8C333C4540F48
:10028B004420C8834004F456800146F6DFE4800B1B
:10029B0001020408102040809003B4E47E019360B7
:1002AB00BCA3FF543F30E509541FFEE493A3600148
:1002BB000ECF54C025E060A840B8E493A3FAE493B2
:1002CB00A3F8E493A3C8C582C8CAC583CAF0A3C860
:1002DB00C582C8CAC583CADFE9DEE780BE753A00AE
:1002EB00753B00753C2B7B007A007921120596E556
:1002FB002B7005752C038046AF21EFC394027480DD
:10030B0094804005752C048035EF75F005A4240905
:10031B00F8E6FEE52B146E6005752C0580207B003E
:10032B007A007922C002EF75F005A4240AF808E6DA
:10033B00FA08E6F5828A83D00212025A8F2C7536A0
:10034B00017B007A00792CAD3612054B43A81022A5
:10035B008F22E4F523F524AF24EF75F006A4245285
:10036B00F8E66550702FEF75F006A42453F8E6FFFE
:10037B0065226003EF701EAF24EF75F006A42454C2
:10038B00F8E6F550EF75F006A42455F808E6FA08E0
:10039B00E6F90202560524E52470020523C39406F0
:1003AB00E5236480948040AF22011C000A08000002
:1003BB00FF07E50101FF07D00112FF01180001142F
:1003CB0000011300011900011600011500011700AF
:1003DB00011A01011B00202452000001FF00200123
:1003EB000102FF0020010001FF0791020202FF0240
:1003FB00E8020303FF0020030002FF000301510486
:10040B00008F258E248D238C22E4F529F528F527E2
:10041B00F52685A72B75A71085A42AAF25AE24AD8D
:10042B0023AC22AB29AA28A927A826C31202456010
:10043B0020E52A65A460FA85A42AE5292401F5297B
:10044B00E43528F528E43527F527E43526F526800D
:10045B00CA852BA7228B4A8A4B894C8D4D74FFF58D
:10046B004EF54FE4FDEDC3954D5037AB4AAA4BA962
:10047B004C8D8275830012018FFEEE624EE4FCEC14
:10048B00C39408748094805016E54E30E70B120726
:10049B0033634F21634E1080031207330C80E00D42
:1004AB0080C3AE4EAF4F228B448A4589468D47E5BC
:1004BB004724FEFD1204608E488F49E547FD7C0002
:1004CB0024FEF582EC34FFF583AB44AA45A9461212
:1004DB00018FFE74FF2DF582EC34FFF58312018F33
:1004EB002400FFEC3EFEE5496F7003E5486E7F008C
:1004FB0060027F0122E4F5A77597A5F526F525F592
:10050B0024F523E47F19FEFDFCAB26AA25A924A81C
:10051B0023C3120245501800E5262401F526E435C5
:10052B0025F525E43524F524E43523F52380D4A2E1
:10053B00AF9200C2AF7597DE7597ADA20092AF2256
:10054B008B378A3889398D3AD3E53A940574809480
:10055B008040057F050207C5E4900008F0FFEFC35C
:10056B00953A501EAB37AA38A9398F827583001282
:10057B00018FFE74092FF582E43400F583EEF00F42
:10058B0080DCE53A04F519120676228B378A388916
:10059B0039E51824FDAB3AAA3BA93C1201BCE4FF98
:1005AB00FEAB3AAA3BA93C120176FDC3EF9D7480CA
:1005BB00F86E98501F74012FF58274003EF583E09E
:1005CB00AB37AA38A9398F828E831201CE0FBF00A9
:1005DB00010E80CD2285A7221205001207EE12080C
:1005EB00031207FC1207DB12076B1207F5120755F4
:1005FB001207AD12077E12073F1207A01206A412B4
:10060B00080A1200268522A722E4FFFEEEC39518E6
:10061B005027120728E0FD647D70120E120728E0A8
:10062B006420FC74002F12072BECF0800874002F51
:10063B0012072BEDF00F0E80D38F182275F002E509
:10064B001BA42417F582E5F03408F583E493FE74BC
:10065B000193FF7C007D0A1201F0AB07AA06EB2485
:10066B0096FDE43AFCAF05FE02070E7B017A00799A
:10067B0008AD19120460AC0674082519F582E43430
:10068B0000F583ECF074092519F582E43400F58349
:10069B00EFF0051905190207BA75A71053C9FE75B6
:1006AB00C20175C5FF75C6FF53C29FE4F5AB75ACB0
:1006BB0005F5B275B30343C26043D10143D1024385
:1006CB00C90122C0E0C0D075D000C007E4FFE5B07F
:1006DB005401640160010FEF651C60058F1C75519F
:1006EB0003D007D0D0D0E0321205E043B01F120880
:1006FB00118F2112035B7F027E007D007C001204B0
:10070B000C80EBA9A775A71053C29FEFF5ABEEF5C5
:10071B00ACEDF5B2ECF5B343C26089A72274002EA1
:10072B00F582E43400F58322E54F25E0F54FE54EE5
:10073B0033F54E2275A710E59854045398FB539844
:10074B00FC439802439804429822E4F5A7AF8853E0
:10075B0088AF758D2BEF5440FEEF54104E4288221C
:10076B00E4F5A9E5A9548060FA75A903E5A95480BD
:10077B0060FA22E59154045391FB7593F075920D39
:10078B00439104429122E51B64FE700475510122D2
:10079B00051B051B22E4F5A7758E19758920438867
:1007AB004022E5C8540453C8FB43C80442C822E4A2
:1007BB00F513F516F51743990222900008EFF07523
:1007CB001901020676120176F51B1206477F0022ED
:1007DB00E4F5A775E35075E101228B218A22892369
:1007EB007F002275A41375F1332275A71075C11004
:1007FB002275A72075F41F2275A51075F21022E43F
:10080B00F5A743983022AF51755104220001001C0B
:10081B00003900550071008E00AA00C600E300FFEE
:10082B00011B013801540170018D01A901C501E2C1
:10083B0001FE021A023702530271028F02AE02CE80
:10084B0002EF031103350359037E03A503CC03F415
:10085B00041E0449047504A204D004FF053005628C
:10086B00059505C905FF0636066E06A706E2071EA7
:10087B00075B079A07DA081C085F08A308E9093128
:10088B00097909C40A0F0A5D0AAB0AFC0B4E0BA1CE
:10089B000BF60C4D0CA50CFF0D5B0DB80E170E785F
:1008AB000EDA0F3E0FA4100C107510E0114D11BC99
:1008BB00122C129F131313891401147B14F7157543
:1008CB0015F5167716FA178018081892191D19AB1B
:1008DB001A3B1ACD1B611BF81C901D2A1DC71E66E7
:1008EB001F071FAA205020F721A1224E22FC23AD67
:1008FB002460251525CD26872744280328C429885D
:10090B002A4E2B172BE22CAF2D7F2E522F272FFE8B
:10091B0030D931B532953377345B3542362C3718B5
:10092B00380738F939EE3AE53BDF3CDC3DDB3EDDA1
:10093B003FE240EA41F5430244134526463C475506
:10094B00487149904AB14BD64CFE4E294F565087B1
:10095B0051BB52F1542B556856A857EB59325A7B61
:10096B005BC85D175E6A5FC0611A627663D66539D4
:10097B00669F680969766AE66C596DD06F4B70C8D3
:10098B00724973CE755676E178707A027B987D3119
:10099B007ECD806E821183B98564871288C48A7A72
:1009AB008C338DF08FB19175933D950996D998AC99
:1009BB009A839C5E9E3CA01EA205A3EEA5DCA7CE4F
:1009CB00A9C3ABBDADBAAFBBB1C1B3CAB5D7B7E85D
:1009DB00B9FDBC16BE33C054C279C4A3C6D0C9017D
:1009EB00CB37CD71CFAED1F0D437D681D8CFDB2278
:1009FB00DD79DFD4E234E498E700E96CEBDDEE520D
:0C0A0B00F0CBF349F5CBF852FADDFD6C9E
:00000001FF
