:020000040000FA
:100000000204D4020683E5B0540164016014E51AC9
:100010007008751A01751BFF8005E4F51AF51B12AF
:10002000099D220201D8E4F5A9E5A9548060FA757A
:10003000A903E5A9548060FA22222202003EC0E012
:10004000C0F0C083C082C0D075D000C000C001C065
:1000500002C003C004C005C006C00775A700E5C004
:1000600054F0700302017024F0700302019E24F02A
:10007000700302012E24E0700302011224F07003C9
:1000800002019E24D0606624C0602224E060030246
:1000900001B690004EE090004C700AE04401F5C2B9
:1000A000D20002016AE0F5C2C20002016A30C13624
:1000B00030001090004DE014F060030201BBC2C19B
:1000C0000201BB90004EE06012900046120A27E049
:1000D000F5C290004EE014F00201BB90004DE060CC
:1000E00029D2C50201BB7F01120BB18020900044D0
:1000F000120A27E5C2F090004DE0600C14F0600396
:100100000201BBC2C10201BBC2C1120BC2D2C402F6
:1001100001AC20C1030201BB900050E014F0600963
:10012000120A24E0F5C20201BB7F030201B830C20B
:1001300013900051E0FF14F0EF6004D2028005E458
:10014000FF120BB1E5C213B392002000032001059A
:1001500090004FE4F020001290004FE07003200167
:1001600003120039120A24E0F5C2C2C5D201804B45
:1001700090004FE0FF04F0900048E0FCA3E02FF572
:1001800082E43CF583E5C2F0900052E0FF90004F1E
:10019000E06F702712003990004FE4F0801D3000AE
:1001A0000990004FE06003120039C2C4A20292C558
:1001B000C202C20180057F02120BB1C2C0D007D0BB
:1001C00006D005D004D003D002D001D000D0D0D0CA
:1001D00082D083D0F0D0E032C0E0C083C082C0D0F3
:1001E00075D000C000C001C002C003C004C005C07B
:1001F00006C00785A74475A700E59830E1705398BD
:10020000FDE516700975160175997E020304E51364
:10021000C39519504974372513F582E43400F583EA
:10022000E0FFE5136031E519146513602AEFFD6402
:100230007E600AED647F6005ED647D701AE51570DF
:100240000975150175997D020304751500EF642089
:10025000F59905130203048F990513020304E517AA
:10026000600302030475170175997F0203048599E1
:1002700042751900E512640D7005F512751401AF91
:10028000427E00EF647E7004F5128078E512F4601F
:1002900073EF647F4E70618512187512FFE514606C
:1002A0000A7F04120B547514008059C3E518940397
:1002B0007480948050047F01802612096A90002A7D
:1002C000E0F5437B017A00792AAD1812077DEF60D3
:1002D000047F02800BAF43EF600B640260077F0373
:1002E000120B54801FE54364027005120B49801401
:1002F00053A8EF755202800C742A2512120ABEE52B
:1003000042F005128544A7D007D006D005D004D00E
:1003100003D002D001D000D0D0D082D083D0E03240
:10032000BB010689828A83E0225002E722BBFE02DB
:10033000E32289828A83E49322BB010CE58229F5BA
:1003400082E5833AF583E0225006E92582F8E62229
:10035000BBFE06E92582F8E222E58229F582E583E3
:100360003AF583E49322BB010689828A83F0225006
:1003700002F722BBFE01F322F8BB010DE58229F54D
:1003800082E5833AF583E8F0225006E92582C8F633
:1003900022BBFE05E92582C8F222BC000BBE002963
:1003A000EF8DF084FFADF022E4CCF875F008EF2F6C
:1003B000FFEE33FEEC33FCEE9DEC984005FCEE9D29
:1003C000FE0FD5F0E9E4CEFD22EDF8F5F0EE842045
:1003D000D21CFEADF075F008EF2FFFED33FD4007A6
:1003E000985006D5F0F222C398FD0FD5F0EA22A36B
:1003F000F8E0C5F025F0F0E582158270021583E083
:10040000C838F0E822EB9FF5F0EA9E42F0E99D4201
:10041000F0E89C45F0228A838982E473C203E49069
:100420000000F07C007D007A007B19752801752999
:10043000117FD01209323003FD900019E0547FFF84
:10044000120B2D900013EFF090001AE0547FFF1272
:100450000B2D900014EFF090001BE0547F900015DE
:10046000F030E624E0FF5420FDEF541FFF120B2D67
:10047000EFF0640C7006ED701BF08018ED601590C5
:100480000015E0240CF0800C900015E0543FFF12A2
:100490000B2DEFF090001DE0543FFF120B2D90004C
:1004A00016EFF090001EE0541FFF120B2D90001766
:1004B000EFF090001FE0FF120B2D900018EFF0906E
:1004C0000028E0FFC41313135401900012F0120B24
:1004D0008792A822787FE4F6D8FD75817602051B05
:1004E000020A6AE493A3F8E493A34003F68001F2BE
:1004F00008DFF48029E493A3F85407240CC8C3331D
:10050000C4540F4420C8834004F456800146F6DFEB
:10051000E4800B010204081020408090062CE47E49
:10052000019360BCA3FF543F30E509541FFEE493E0
:10053000A360010ECF54C025E060A840B8E493A3A7
:10054000FAE493A3F8E493A3C8C582C8CAC583CAD2
:10055000F0A3C8C582C8CAC583CADFE9DEE780BE8A
:10056000753B00753C00753D2C7B007A00792212AA
:100570000861E52C7005752D038046AF22EFC3940A
:1005800002748094804005752D048035EF75F00568
:10059000A42409F8E6FEE52C146E6005752D05808F
:1005A000207B007A007923C002EF75F005A4240AAD
:1005B000F808E6FA08E6F5828A83D00212041A8F58
:1005C0002D7537017B007A00792DAD37120816435F
:1005D000A810228F23E4F524F525AF25EF75F0064A
:1005E000A42453F8E66551702FEF75F006A4245447
:1005F000F8E6FF65236003EF701EAF25EF75F00688
:10060000A42455F8E6F551EF75F006A42456F80831
:10061000E6FA08E6F90204160525E5257002052428
:10062000C39406E5246480948040AF220A08000049
:10063000FF0B7E0101FF0B5F0112FF011800011487
:100640000001130001190001160001150001170037
:10065000011A01011B00C103202453000001FF0007
:100660003A010102FF003A010001FF0B1E020202E3
:10067000FF0560020303FF003A030002FF000601CA
:10068000520400C0E0C083C082C0D075D000C00753
:10069000B294900013E004F0643C7030F0A3E004E6
:1006A000F0643C7027F0A3E004F06418701EF012B0
:1006B0000A49900016E004F0B507117401F0A3E0B8
:1006C00004F0640D700604F0A3E004F0D007D0D06D
:1006D000D082D083D0E0328F268E258D248C23E4E7
:1006E000F52AF529F528F52785A72C75A71085A4E7
:1006F0002BAF26AE25AD24AC23AB2AAA29A928A866
:1007000027C31204056020E52B65A460FA85A42B9D
:10071000E52A2401F52AE43529F529E43528F528C8
:10072000E43527F52780CA852CA7228B4B8A4C8974
:100730004D8D4E74FFF54FF550E4FDEDC3954E50D1
:1007400037AB4BAA4CA94D8D82758300120339FE3D
:10075000EE624FE4FCECC39408748094805016E57C
:100760004F30E70B120AC6635021634F108003120B
:100770000AC60C80E00D80C3AE4FAF50228B458A75
:100780004689478D48E54824FEFD12072B8E498F88
:100790004AE548FD7C0024FEF582EC34FFF583AB8E
:1007A00045AA46A947120339FE74FF2DF582EC34A1
:1007B000FFF5831203392400FFEC3EFEE54A6F701B
:1007C00003E5496E7F0060027F0122E4F5A775977B
:1007D000A5F527F526F525F524E47F19FEFDFCABEC
:1007E00027AA26A925A824C3120405501800E52726
:1007F0002401F527E43526F526E43525F525E435ED
:1008000024F52480D4A2AF9204C2AF7597DE759709
:10081000ADA20492AF228B388A39893A8D3BD3E559
:100820003B940A7480948040057F05020B54E49049
:100830000037F0FFEFC3953B501EAB38AA39A93AF9
:100840008F82758300120339FE74382FF582E434E9
:1008500000F583EEF00F80DCE53B04F5191209CCBE
:10086000228B388A39893AE51824FDAB3BAA3CA98A
:100870003D120366E4FFFEAB3BAA3CA93D120320F8
:10088000FDC3EF9D7480F86E98501F742B2FF58276
:1008900074003EF583E0AB38AA39A93A8F828E8383
:1008A0001203780FBF00010E80CD2253E3BF43D463
:1008B0000143D40243F10143F10253E1FB43E3401E
:1008C000208122C280E4FFEFC394FF7480948050A3
:1008D000030F80F3D280E4FFEFC394FF7480948011
:1008E00050DE0F80F353E3BF53D4FE53D4FD43E1F6
:1008F0000443E3402285A7231207CB120B8F120B70
:100900009D120B74120BB6120B6A120026120B9674
:10091000120AA2120AE8120AFB120AD2120B3C12A5
:1009200009FA120B0E120BBA120BBE120BA485237E
:10093000A722AEA7E4F5A790004CEFF0900046EC9C
:10094000F0A3EDF0900044EAF0A3EBF090004EE548
:1009500028F090004DE529F09000517401F030012D
:1009600004D2028002D2C58EA722E4FFFEEEC39518
:10097000185027120ABBE0FD647D70120E120ABBEC
:10098000E06420FC742A2F120ABEECF08008742A5E
:100990002F120ABEEDF00F0E80D38F182275F002D1
:1009A000E51BA424C5F582E5F0340BF583E493FE42
:1009B000740193FF7C007D0A12039AAB07AA06EB31
:1009C0002496FDE43AFCAF05FE020A887B017A001A
:1009D0007937AD1912072BAC0674372519F582E467
:1009E0003400F583ECF074382519F582E43400F511
:1009F00083EFF005190519020B4975A71053C9FEBD
:100A000075C20175C5FF75C6FF53C29FE4F5AB758E
:100A1000AC05F5B275B30343C26043D10143D102C3
:100A200043C9012290004AE475F0011203EF85F0FA
:100A300082F58322AEA7E4F5A753C1BF8FD722A6C4
:100A4000A7E4F5A7A81C080822900017E0FF64029D
:100A5000700EA3E054037008EF900DC49304FF22BE
:100A6000900017E0900DC493FF221208AB1208F516
:100A700012041C120BAB8F221205D37F027E007D65
:100A8000007C001206D780EBA9A775A71053C29F60
:100A9000EFF5ABEEF5ACEDF5B2ECF5B343C2608922
:100AA000A722E4F5A7AF885388AF758C86758D2B88
:100AB000EF5440FEEF54104E428822742A2EF582E5
:100AC000E43400F58322E55025E0F550E54F33F599
:100AD0004F2275A710E59854045398FB5398FC4394
:100AE0009802439804429822E5C8540453C8FB7501
:100AF000CBFE75CA1643C80442C822E5915404537C
:100B000091FB7593F075920D43910442912275A764
:100B10002075C308E4F5A775AC8043C1C322E51B6B
:100B200064FE700475520122051B051B22EFC4549C
:100B30000F75F00AA4FEEF540F2EFF22E4F5A775FF
:100B40008E1975892243885122E4F513F516F5179D
:100B500043990222900037EFF07519010209CC1277
:100B60000320F51B12099D7F0022E4F5A775E350D1
:100B700075E1052275A72075F34075CC40228B22C4
:100B80008A2389247F0022900012E024FFB322757B
:100B9000A41C75F17F2275A71075C1102275A510D0
:100BA00075F2102275E60175A89022AF52755204B5
:100BB000228F21D2032275F408224398302275E453
:100BC0000622D203220001001C00390055007100EA
:100BD0008E00AA00C600E300FF011B01380154018A
:100BE00070018D01A901C501E201FE021A0237025E
:100BF000530271028F02AE02CE02EF0311033503DE
:100C000059037E03A503CC03F4041E0449047504B0
:100C1000A204D004FF05300562059505C905FF064D
:100C200036066E06A706E2071E075B079A07DA0874
:100C30001C085F08A308E90931097909C40A0F0AE9
:100C40005D0AAB0AFC0B4E0BA10BF60C4D0CA50C70
:100C5000FF0D5B0DB80E170E780EDA0F3E0FA410C5
:100C60000C107510E0114D11BC122C129F131313B0
:100C7000891401147B14F7157515F5167716FA17F4
:100C80008018081892191D19AB1A3B1ACD1B611B4D
:100C9000F81C901D2A1DC71E661F071FAA20502082
:100CA000F721A1224E22FC23AD2460251525CD2657
:100CB000872744280328C429882A4E2B172BE22C87
:100CC000AF2D7F2E522F272FFE30D931B5329533DD
:100CD00077345B3542362C3718380738F939EE3A15
:100CE000E53BDF3CDC3DDB3EDD3FE240EA41F543F6
:100CF0000244134526463C4755487149904AB14B3A
:100D0000D64CFE4E294F56508751BB52F1542B55AD
:100D10006856A857EB59325A7B5BC85D175E6A5F0D
:100D2000C0611A627663D66539669F680969766A1A
:100D3000E66C596DD06F4B70C8724973CE7556769C
:100D4000E178707A027B987D317ECD806E8211834E
:100D5000B98564871288C48A7A8C338DF08FB191FB
:100D600075933D950996D998AC9A839C5E9E3CA05C
:100D70001EA205A3EEA5DCA7CEA9C3ABBDADBAAF3D
:100D8000BBB1C1B3CAB5D7B7E8B9FDBC16BE33C055
:100D900054C279C4A3C6D0C901CB37CD71CFAED16F
:100DA000F0D437D681D8CFDB22DD79DFD4E234E44A
:100DB00098E700E96CEBDDEE52F0CBF349F5CBF8A8
:100DC00052FADDFFFF1F1C1F1E1F1E1F1F1E1F1EAE
:010DD0001F03
:00000001FF
