:020000040000FA
:100000000208FD12005843B01FE5B0541F641F6082
:10001000104390107D007C067F007E0A12007780DE
:10002000E85390EF7D007C037F007E05120077800F
:10003000D853C9FE75C20175C5FF75C6FF53C29F6F
:10004000E4F5AB75AC05F5B275B30343C26043D1BB
:100050000143D10243C9012285A7081208001200FA
:10006000B51200D11200CA1200BC1200911200C3D6
:100070001200318508A722A9A775A71053C29FEFC8
:10008000F5ABEEF5ACEDF5B2ECF5B343C26089A784
:1000900022E4F5A9E5A9548060FA75A903E5A954FD
:1000A0008060FA22EB9FF5F0EA9E42F0E99D42F073
:1000B000E89C45F02275A40375F10322E4F5A775C9
:1000C000E3502275A71075C1102275A72075F41F83
:0800D0002275A51075F2102243
:10080000E4F5A77597A5F50CF50BF50AF509E47F56
:1008100019FEFDFCAB0CAA0BA90AA809C31200A47F
:10082000501800E50C2401F50CE4350BF50BE4350C
:100830000AF50AE43509F50980D4A2AF9200C2AFE7
:0B0840007597DE7597ADA20092AF2205
:0C08FD00787FE4F6D8FD7581200200032E
:00000001FF
